:040000000C94060254
:040048000C941907F4
:040078000C947D0760
:14008C00F50D0000203F00202020202020202020303030301F
:1400A00030202020202020202020202020202020202020904C
:1400B4004040404040404040404040404040400C0C0C0C0C3C
:1400C8000C0C0C0C0C404040404040400909090909090101F0
:1400DC0001010101010101010101010101010101010140407E
:1400F000404040400A0A0A0A0A0A02020202020202020202AC
:140104000202020202020202020240404040200000000000B3
:140118000000000000000000000000000000000000000000D3
:14012C000000000000000000000000000000000000000000BF
:140140000000000000000000000000000000000000000000AB
:14015400000000000000000000000000000000000000000097
:14016800000000000000000000000000000000000000000083
:14017C0000000000000000000000000000000000000000006F
:14019000000000286E756C6C20707472207061737365642939
:1401A40000696E7465676572206F6E6C79207072696E7466C4
:1401B8002C2073656C6563742050726F6A6563742D3E4F7046
:1401CC0074696F6E732D3E5461726765742C2246502070723A
:1401E000696E74662220746F207072696E7420666C6F6174B2
:1401F400696E6720706F696E74206E756D626572733E00CA4B
:14020800B6B1F0B3C9B9A600CEC2B6C800B0A5DFCF00BEC819
:14021C00C3FC00CAB6B1F0C4DAB2BFB4EDCEF300CAB6B1F05C
:14023000BEDCCAB6D2BB00CAB6B1F0BEDCCAB600D3EFD2F450
:14024400B3ACCAB100B3F5CABCBBAFD6D000D3EFD2F4C4A39F
:14025800BFE900D4A4BEAFCFB5CDB300BBB6D3ADCAB9D3C3F7
:14026C00B6C0BED3C0CFC8CB002014101422545905D6DCC8AF
:14028000D500D6DCC1F900D6DCCEE500D6DCCBC400D6DCC809
:14029400FD00D6DCB6FE00D6DCD2BB00A1E600BEC8C3FC20C8
:1402A800317CBEC8C3FCB0A120317CB0A5DFCF20327CCFD6BC
:1402BC00D4DAB6E0C9D9B6C8203130307CCFD6D4DACEC2B604
:1402D000C8B6E0C9D9203130307CCFD6D4DABCB8B5E320313D
:1402E40030317C000000B4CACCF5B8FCD0C2CAA7B0DC00B4F3
:1402F800CACCF5B8FCD0C2B3C9B9A600D5FDD4DAB8FCD0C280
:14030C00B4CACCF5A1A3A1A3005B6D335D5B73355D5B76335A
:140320005D5B66315D5B62305DB2BBBAC3D2E2CBBCA3ACCF90
:14033400B5CDB3CEB4C0EDBDE2C4FAB5C4D2E2CBBCA3ACC72A
:14034800EBD6D8D0C2CBB5D2BBB1E95B6D335D5B645D005B00
:14035C006D335D5B73355D5B76335D5B66315D5B62305DBB7B
:14037000B6D3ADCAB9D3C3B6C0BED3C0CFC8CBD3A6BCB1BA61
:14038400F4BEC8CFB5CDB35B6D335D5B645D0047455420680B
:140398007474703A2F2F616C61726D2E69636861726D2E6D17
:1403AC00650041542B43495053454E440041542B4349504D29
:1403C0004F44453D31005443502C616C61726D2E6963686100
:1403D400726D2E6D652C38300041542B4349504D55583D309F
:1403E8000041542B43574A41503D49434841524D2C6D656974
:1403FC0079616E6C69616E670041542B52535400CFEFD0E172
:14041000CDBFDEBFCE51D0400AEA08830024E5E0F3E015E050
:14042400E335F10711F00192FBCF0083E7E0F2E0A0E0B1E029
:1404380014E000E00BBFEC30F10721F0C89531960D92F9CF62
:14044C000E946302FFCF2DE531E000E90E94B50604E610E084
:140460000E94370624E531E00AE80E94B50608EB1BE00E94B0
:1404740037060C94AF062BE431E000E90E94B50604E610E0A2
:140488000E94370622E431E00AE80E94B50608EB1BE00E948B
:14049C0037060C94AF06F89422242CBE20926D000E94EC064B
:1404B000222425BE20926A002ABE29BE27BE20927D00789404
:1404C40008950E94460604E610E00E9437060E94CF060E94C7
:1404D800AF060E94D7030E94F9040AE010E00E943706B3DFF5
:1404EC00DADF0E949E07C3DF0E94DD08C0C00E9411040E94FA
:14050000B20521C008E90E945F0602E010E00E94370682E143
:1405140093E0E0910F03FF27E80FF91F408180910F038F5FD6
:1405280080930F038F7080930F034D3009F40DC0042F0E945A
:14053C007C0602E010E00E94370620900F033090100332149D
:14055000C9F60E9466090E94C207A02E4A2D55274130E0E06A
:140564005E0709F44DC04230E0E05E0709F454C04330E0E039
:140578005E0709F47EC04430E0E05E07B9F04530E0E05E07F3
:14058C00E9F04630E0E05E0769F14730E0E05E07F9F0413097
:1405A000E0E05E070CF44EC04436E0E05E0709F43FC048C071
:1405B40029E331E008E80E94B50602E010E00E94370659C0FF
:1405C80020E331E008E80E94B50602E010E00E9437064FC0FE
:1405DC0025E231E008E80E94B50602E010E00E94370645C0F0
:1405F00028E131E008E80E94B50602E010E00E9437063BC0E4
:1406040023E131E00CE80E94B50602E010E00E9437060E9429
:1406180083092FC02EE031E00CE80E94B50602E010E00E946F
:14062C00370625C029E031E00CE80E94B50602E010E00E94B9
:1406400037061BC020E031E00CE80E94B50602E010E00E94B8
:1406540037060CE80E945F0602E010E00E9437064A2D42955B
:140668004F70405D042F0E947C0602E010E00E9437063FCF0C
:14067C0008954A931F9A169A0E7F442709C000FF02C01E9A4D
:1406900001C01E981D9A1D98069543954830A8F3169A4427D2
:1406A40009C020FF02C01E9A01C01E981D9A1D98269543956A
:1406B8004830A8F31F98499108954A936A931F9A169A016049
:1406CC00662709C000FF02C01E9A01C01E981D9A1D980695CD
:1406E00063956830A8F31698662709C046950E9B02C04068E9
:1406F40001C04F771D9A1D9863956830A8F31F98042F6991F0
:140708004991089522270EE8B6DF20E800E8B3DF20916F01EF
:14071C000CE8AFDF2091700108E8ABDF2091710106E8A7DF14
:14073000209175010AE8A3DF2091720104E89FDF2091730167
:1407440002E89BDF2091740100E897DF209175010AE893DF2E
:1407580020E80EE890CFAA924A930CE8AEDF00936F0108E8A3
:14076C00AADF0093700106E8A6DFA02EA092710104E8A1DF9B
:14078000A02EA092720102E89CDFA02EA092730100E897DFBB
:14079400402F842F8F77809374010AE890DFA02EA0927501CA
:1407A8004991A99008951F981D98179A159A08954A93402FD8
:1407BC00413029F424E931E006E80E94B506423029F42FE88C
:1407D00031E006E80E94B506433029F42AE831E006E80E9476
:1407E400B506443029F425E831E006E80E94B506453029F4BA
:1407F80020E831E006E80E94B506463029F42BE731E006E8E5
:14080C000E94B506473029F426E731E006E80E94B5064991A4
:140820000895219708EC10E00E94370698DF00E80E945F0646
:1408340002E010E00E94370680916E0182958F70805D888381
:14084800082F0E947C0602E010E00E94370680916E018F7011
:14085C00805D8883082F0E947C0602E010E00E943706809183
:140870006F0182958F70805D8883082F0E947C0602E010E0D9
:140884000E94370680916F018F70805D8883082F0E947C06BE
:1408980002E010E00E9437060DE20E947C0602E010E00E9414
:1408AC0037068091700182958F70805D8883082F0E947C0620
:1408C00002E010E00E943706809170018F70805D8883082FD3
:1408D4000E947C0602E010E00E9437060DE20E947C0602E046
:1408E80010E00E9437068091710182958F70805D8883082F75
:1408FC000E947C0602E010E00E943706809171018F70805DB4
:140910008883082F0E947C0602E010E00E94370600917501B5
:1409240049DF02E010E00E94370600E90E945F0605E010E021
:140938000E9437068091720182958F70805D8883082F0E9471
:14094C007C0602E010E00E943706809172018F70805D8883F9
:14096000082F0E947C0602E010E00E9437060AE30E947C0666
:1409740002E010E00E9437068091730182958F70805D88833B
:14098800082F0E947C0602E010E00E943706809173018F70CB
:14099C00805D8883082F0E947C0602E010E00E9437060AE366
:1409B0000E947C0602E010E00E9437068091740182958F70C2
:1409C400805D8883082F0E947C0602E010E00E94370680911A
:1409D80074018F70805D8883082F0E947C0602E010E00E94E0
:1409EC003706219608954A93149A1C9805E010E00E94220688
:140A00001C9A149801E010E00E94220641B1407105E010E06D
:140A14000E942206442311F0002701C001E0499108954A937F
:140A28006A93442768E00FC04695149A1C980E9419061C9A87
:140A3C0014980E9419060C9B01C040680E941C066A956623DD
:140A500079F7042F699149910895AA924A93A02E48E00EC0A1
:140A6400149A1C980E941906A0FE01C01C9A01E010E00E94D3
:140A780022061C9AA6944A95442381F74991A9900895B3DF52
:140A8C000CECE5DF04E4E3CF4A935A932997ABDF0CECDDDF38
:140AA0000EEBDBDF4427552708C0BDDFCE01FA01E80FF91F6B
:140AB40000834F5F5F4F4930E0E05E07A0F349815527542F55
:140AC8004427288033244229532950930E0340930D030EE8FC
:140ADC0010E00E94220A1801290100910D0310910E030E9410
:140AF000D20A3A932A931A930A93810192010E94D50B0E9409
:140B0400A00A10930E0300930D038A01299659914991089531
:140B1800AA92BA92580124E630E085010E94080A10930A03E4
:140B2C000093090324E630E085010E94060A58012AE030E051
:140B40000E94080A10930803009307032AE030E085010E9460
:140B5400060A1093060300930503B990A9900895219791DFEF
:140B680095DF00910D0310910E03D2DF05E910E00E945F061C
:140B7C0002E010E00E9437068091090390910A03C096888308
:140B9000082F11270E947C0602E010E00E94370680910703F2
:140BA40090910803C0968883082F11270E947C0602E010E04B
:140BB8000E9437060EE210E00E947C0602E010E00E94370695
:140BCC008091050390910603C0968883082F11270E947C06DE
:140BE00002E010E00E94370629E931E007E910E00E94B506F0
:140BF4002196089500000000000000000000000008950000FC
:140C08000000000000000000000000000000000000000000D8
:140C1C000000000000000000000000000000000000000000C4
:140C30000895E9DFE8DFE7CFFCDFFBDFFADFF9CFFBDFFACFD5
:140C44004A93402F01C0FADF242E332441502220D1F7499198
:140C58000895F2DFF1DFF0DFEFDFEEDFEDDFECDFEBDFEADFB6
:140C6C00E9CF4A935A93A80101C0F1DF1A014150504022203A
:140C8000D1F73320C1F75991499108958FEF8BBB8ABB809310
:140C940062008093610082BB81BB83B98EEF82B9949A959AAC
:140CA8008FEF8BBB959888BB87BB80916200846080936200F6
:140CBC000895AA92A02E809162008D7F809362008091620016
:140CD0008B7F8093620080916200886080936200ABBA05E077
:140CE40010E00E94370680916200877F80936200A990089569
:140CF800AA92A02E80916200826080936200809162008B7F97
:140D0C008093620080916200886080936200ABBA05E010E054
:140D20000E94370680916200877F80936200A99008950E947A
:140D34006E0AC22E402FAE80CC2021F4042F0058BCDF03C0BC
:140D4800042F0057B8DF02E010E00E9437060A2DCFDF0C9440
:140D5C00750A01E0AEDF0AE010E00C9437060E944C0AA9013D
:140D7000A02E0A2DA4DF05E010E00E94370609C0FA010081EE
:140D8400B9DF4F5F5F4F05E010E00E943706FA0120802220D6
:140D980099F70C94510A8FEF8ABB8AB3806E8ABB00E389DF3E
:140DAC0005E010E00E94370600E383DF05E010E00E94370686
:140DC0000CE07DDF05E010E00E94370601E077DF05E010E017
:140DD4000C94370622242AB886E0809395002BB820929000D3
:140DE80083E089B988E98AB92092A5032092A4030895222408
:140DFC002092B80311C089EB93E0E091B803FF27E80FF91F5D
:140E100020802CB85E9BFECF5E9A8091B8038F5F8093B80304
:140E24002090B7033090B803321448F308952A928A939A93B1
:140E3800EA93FA932FB62A9287EA93E0E091A503FF27E80FE1
:140E4C00F91F2CB020828091A5038F5F8093A5038F70809388
:140E6000A50329902FBEF991E991999189912990189522243C
:140E740020929A0086E080939D0020929B002092980083E00E
:140E88008093990088E980939A002092100320920F03089566
:140E9C0022242092230318C084E293E0E0912303FF27E80FBF
:140EB000F91F208020929C0020909B0026FEFCCF80919B0042
:140EC400806480939B00809123038F5F809323032090220355
:140ED80030902303321410F38DE080939C0020909B0026FE4C
:140EEC00FCCF80919B00806480939B0008952A928A939A9346
:140F0000EA93FA932FB62A9282E193E0E0911003FF27E80FBB
:140F1400F91F20909C002082809110038F5F809310038F708C
:140F28008093100329902FBEF991E99199918991299018953B
:140F3C00A69AA79AAE9AAF9A04E610E00E943706AF980AE0A5
:140F500010E00E943706AF9A04E610E00C9437068DEF80932F
:140F6400B9031801232C33242092BA03C80190708093BB03F5
:140F78002093BC0322242092BD0308950E947C0A44272224C5
:140F8C0033243092E2012092E10104C001E010E00E9437064D
:140FA0002090A5033090A4033214B1F387EA93E0E32DFF277A
:140FB400E80FF91F6081832D8F5F8093A4038F708093A40328
:140FC800C42EDD24CC2011F4DD2091F0C6018130E0E09E07D6
:140FDC0091F08230E0E09E07A9F08330E0E09E07D1F0843043
:140FF000E0E09E0719F13CC06C3F09F039C041E037C0662344
:1410040019F00027112733C042E030C086E0861718F4002735
:1410180011272BC0A62E43E027C0653419F40027112723C0DB
:14102C00AA9419F4062F11271EC0C62E44E01AC02090E10196
:141040003090E201322C22243092E2012092E101262E332471
:141054004090E1015090E201422853285092E2014092E101B5
:14106800AA9411F4820101C097CF0C94850A0E94600A5801F3
:14107C0085010E94F509A80121E00E5F1F4F6ADF2224209274
:14109000BD03662777270CC0FB01EA0DFB1D20808EEB93E0FE
:1410A400FB01E80FF91F20826F5F7F4F6417750788F38EEB04
:1410B80093E0FB01E80FF91F22242082CA0105968093B7038B
:1410CC0022242092A5032092A4030E94FD0654DF0134E0E04A
:1410E0001E0729F004E110E00E943706EFCF4ADFA8010F3437
:1410F400E0E01E0709F401C0C8D00C94670A24E532E009E395
:1411080014E00E94FF0D09E314E0B1CF2EE032E009E314E0D1
:14111C000E94FF0D09E314E0A8CFAA92A02E25E002E010E0D9
:1411300017DFA092BD0309EB13E00E94F5090093B7032224A9
:141144002092A5032092A4030E94FD0619DF00300107A9F373
:1411580004E110E00E943706A99008952EE107E010E0FADE3B
:14116C0082E08093BD038BE08093BE0388EB8093BF0383E14F
:141180008093C00388E88093C10384E08093C2038AE0809385
:14119400B70322242092A5032092A4030E94FD06EFDE0134ED
:1411A800E0E01E0709F401C0F2CF04E110E00C9437060E947B
:1411BC00560A0CE911E00E94F509402F2FE111270D5F1F4FA8
:1411D000C7DE22242092BD0380E28093BE03662777270EC07F
:1411E4008CE991E0FB01E80FF91F20808FEB93E0FB01E80F86
:1411F800F91F20826F5F7F4F242E3324621573056CF3822DE7
:14120C008A5F8093B70322242092A5032092A4030E94FD067A
:141220002DEF31E008E80E94B50602E010E00E943706A8DE09
:141234000134E0E01E0709F405C004E110E00E943706E5CF62
:141248009DDEA8010133E0E01E0771F40E94AF0620EF31E079
:14125C0008E80E94B50608EE13E00E9437060E94AF060DC045
:141270000E94AF0623EE31E008E80E94B50608EE13E00E9419
:1412840037060E94AF060C945B0A21E201E010E065DE84E042
:141298008093B70322242092A5032092A4030E94FD066CDE8D
:1412AC000134E0E01E0731F467DE0F34E0E01E0709F405C0C0
:1412C00004E110E00E943706E9CF089520E102E010E046DE1A
:1412D40022242092BD0385E08093B70322242092A5032092CA
:1412E800A4030E94FD064ADE0134E0E01E0709F405C004E1BD
:1412FC0010E00E943706EECF08952EEF32E004E213E00E940B
:14131000FF0D04E213E00E94F509009322030C944E0722EE87
:1413240032E004E213E00E94FF0D04E213E00E94F509009310
:1413380022030C944E0726ED32E004E213E00E94FF0D04E2F5
:14134C0013E00E94F509009322030C944E072FEB32E004E23B
:1413600013E00E94FF0D04E213E00E94F509009322030C9407
:141374004E0722EB32E004E213E00E94FF0D04E213E00E94EF
:14138800F509009322030C944E0727EA32E004E213E00E9408
:14139C00FF0D04E213E00E94F509009322030C944E072CE8F7
:1413B00032E004E213E00E94FF0D04E213E00E94F509009384
:1413C40022030C944E07C7DF08EC10E00E943706D0DF08ECEF
:1413D80010E00E943706D9DF02E310E00E943706E2CFE02F06
:1413EC00F12FAA27BB270190002011F01196FBCF0A2F1B2F74
:1414000008953A932A931A930A930895689401C0E894EA9215
:14141400FA928A93EE24FF2480E1000F111FEE1CFF1CE21629
:14142800F30618F0E21AF30A03958A95A1F716F40E2D1F2DD6
:14143C008991F990E9900895EA93FA930A92E02FF12FD895A1
:14145000002D3196D895102D3196D895202D3196D895302DD8
:141464000990F991E9910895A990B990C990D990E990F990F4
:14147800499159916991799108957A936A935A934A93FA929B
:14148C00EA92DA92CA92BA92AA9208955A934A93BA92AA9291
:1414A0000895A990B9904991599108957A936A935A934A93E4
:1414B4000895499159916991799108957A936A935A934A934E
:1414C800BA92AA920895A990B9904991599169917991089504
:1414DC005A934A93DA92CA92BA92AA920895A990B990C9906A
:1414F000D9904991599108957A936A935A934A93DA92CA9282
:14150400BA92AA920895A990B990C990D990499159916991AC
:14151800799108950A92D8950A923196D895F02DE99109900F
:14152C00099400951095209530950F5F1F4F2F4F3F4F0895D5
:141540004A925A926A928A930E94060B11F15520E2F08FE14A
:141554004816C0F487E14816D1F058F4419489EE481A05C02B
:1415680035952795179507954A94D1F70EC087E1481A000F54
:14157C00111F221F331F4A94D1F705C03FE7232F132F032F41
:1415900004C0662011F00E94970A8991699059904990089547
:1415A400689401C0E8942227332746F017FD209517FD30957F
:1415B80003C0689401C0E8944A925A926A928A9387E1482E64
:1415CC005524662436F0332322F40E94970A80E8682E0E9493
:1415E0001F0B899169905990499008950FD029F0662011F0DC
:1415F4000E94970A98940895002329F4112319F4222309F414
:1416080033230895F7DF99F08A93632E80E86822220F331F59
:14161C00432E8FE7481A55248827580A269530E8232B33276C
:141630008991989408954424552466240895DEDF09F4089564
:14164400AA93BA93D2019A938A938EE790E0332349F03695AC
:14165800279517950795A817B907CCF41196F5CF8095909596
:14166C0001962223BAF0000F111F221FA817B90714F0119739
:14168000F6CF0027112722273327899199912D01B991A99199
:14169400089533270FEF102F2FE7322F899199912D0102C063
:1416A800AA93BA93A7DF49F0D201A158BF4F2D01342D220F4B
:1416BC00369527953629B991A99108954A925A926A927A9243
:1416D0008A929A92AA92BA92CA92DA92EA92FA928A939A931C
:1416E400089599918991F990E990D990C990B990A9909990A2
:1416F8008990799069905990499008950E94640BAA93BA93C9
:14170C000E94060BE1F1E62CD52CC42CB32EA22E912E802E23
:1417200000811181228133810E94060B71F16E244C0C5D1CD3
:1417340080E84816530664F581E848168FEF58066CF1A29EE9
:14174800B12DA02D919E912D802DA09E800D911DA31FB31F3B
:14175C00829E800D911DA31FB31F929E900DA11DB31FA19EEE
:14177000900DA11DB31F2B2F1A2F092F880F001F111F221F36
:14178400331F0E941F0BB991A9910E94730B08950FEF102FB5
:141798002FE78FE7482EF5CF0027102F202F302FF0CFFA9317
:1417AC00EA93EC2FFD2F32960E94820BE991F9912496089513
:1417C0000E94010A0E94410AA901EE84FF845A01AA2051F472
:1417D400BB2041F480E3EA85FB858083222421828F0153C010
:1417E8004030E0E05E076CF4C7018A30E0E09E0741F4CC24EC
:1417FC00C394C5018095909501965C0101C0CC246A857B85EE
:14181000970185010E94060AA80189E090E08017910734F01F
:14182400CA01C096FB018193BF0106C0CA01895A9F4FFB0161
:141838008193BF01970185010E94080A5801AA2019F7BB20E8
:14184C0009F7CC2021F08DE2FB018193BF012B0161507040BF
:141860002224F2012082AA84BB840CC0F501C080FB0120808E
:14187400F50121925F011B0161507040F101C082A616B7062D
:1418880088F30A851B850E94360A249608950E94410A690112
:14189C005801EA84FB84A501970186010E94060AB80189E059
:1418B00090E08017910734F0CB01C096FA018193AF0106C0BA
:1418C400CB01895A9F4FFA018193AF01970186010E94080AE1
:1418D8006801CC2019F7DD2009F72A01415050402224F20115
:1418EC00208265010CC0F601E080FA012080F60121926F0108
:141900001A0141505040F101E082C416D50688F385010C94ED
:14191400360A83E990E0F801E80FF91F0691112702701070DA
:1419280008954A935A93A8018A010E948B0C0030010731F07E
:14193C008A01015610400F5B1F4F01C08A01599149910895E0
:141950000E94010A0E94410A24976A897B894427552737C158
:14196400E889F9898081853241F00081EE85FF850E948E0AE1
:141978004F5F5F4F25C188E395E05C0180E2C82E8889998951
:14198C000196998B888BFC01E080FF24C7018835E0E09E070F
:1419A00009F465C088E58E159F0594F0C7018534E0E09E07F3
:1419B40009F404C18534E0E09E070CF43DC0C7018335E0E002
:1419C8009E0709F4AFC036C0C7018336E0E09E0709F499C0C8
:1419DC008436E0E09E0709F435C08536E0E09E0709F4E8C021
:1419F0008636E0E09E0709F4E3C08936E0E09E0739F18F360F
:141A0400E0E09E0709F431C08037E0E09E0709F42CC08336BD
:141A1800E0E09E077CF0C7018337E0E09E0709F4A2C08537E7
:141A2C00E0E09E07F1F08837E0E09E07D1F000C0E889F989C8
:141A40000081EE85FF850E948E0A4F5F5F4FBCC06E5F7F4F6D
:141A5400FB013297E080F1808AE090E09983888397018501C9
:141A68000E94E00B4CC06E5F7F4FFB013297E080F180E8892F
:141A7C00F9898081853749F48AE090E09983888397018501BB
:141A90000E944B0C38C0E889F98980818F3649F488E090E083
:141AA40099838883970185010E944B0C2AC0E889F989808112
:141AB800803731F480E3F501819388E781935F0180E190E01D
:141ACC0099838883970185010E944B0CE889F9898081883517
:141AE00091F488E395E05C010AC0F501008111270E94950C74
:141AF400F5010083C50101965C01F5012080222091F788E3E0
:141B080095E05C013EC06E5F7F4FFB013297208031802A829C
:141B1C00022DEE85FF850E948E0A4F5F5F4F4EC06E5F7F4F50
:141B3000FB013297E080F1808C2D8D3299F40DE2EE85FF8520
:141B44000E948E0A4F5F5F4F0BC0F7010691EE85FF850E9404
:141B58008E0A4F5F5F4FC70101967C01F7012690222089F739
:141B6C002DC06E5F7F4FFB013297A080B180AA2031F4BB20FD
:141B800021F483E991E07C01D7CF8C2D8D3299F40DE2EE85D5
:141B9400FF850E948E0A4F5F5F4F0BC0F5010081EE85FF85EA
:141BA8000E948E0A4F5F5F4FC50101965C01F5012080222001
:141BBC0089F704C085EA91E07C01B8CF888999890196998BFF
:141BD000888BE889F9892080222009F0C3CE8A0124960E94A8
:141BE400360A24960895E0915105F09152050193F093520549
:141BF800E093510508950E94010AAA92BA9222972C803D801C
:141C0C003092520520925105CE0108965C01B982A8822E81C5
:141C20003F810CE810E00E94A80C2224E0915105F0915205D1
:141C340020822C803D800091510510915205021913092296C3
:081C4800B990A99024960895BB
:00000001FF
