:040000000C941B023F
:040048000C94ED0720
:040078000C9451088B
:14008C00F70E0000203F00202020202020202020303030301C
:1400A00030202020202020202020202020202020202020904C
:1400B4004040404040404040404040404040400C0C0C0C0C3C
:1400C8000C0C0C0C0C404040404040400909090909090101F0
:1400DC0001010101010101010101010101010101010140407E
:1400F000404040400A0A0A0A0A0A02020202020202020202AC
:140104000202020202020202020240404040200000000000B3
:140118000000000000000000000000000000000000000000D3
:14012C000000000000000000000000000000000000000000BF
:140140000000000000000000000000000000000000000000AB
:14015400000000000000000000000000000000000000000097
:14016800000000000000000000000000000000000000000083
:14017C0000000000000000000000000000000000000000006F
:14019000000000286E756C6C20707472207061737365642939
:1401A40000696E7465676572206F6E6C79207072696E7466C4
:1401B8002C2073656C6563742050726F6A6563742D3E4F7046
:1401CC0074696F6E732D3E5461726765742C2246502070723A
:1401E000696E74662220746F207072696E7420666C6F6174B2
:1401F400696E6720706F696E74206E756D626572733E00CA4B
:14020800B6B1F0B3C9B9A600CAB1BCE400CEC2B6C800B0A532
:14021C00DFCF00BEC8C3FC00CAB6B1F0C4DAB2BFB4EDCEF349
:1402300000CAB6B1F0BEDCCAB6D2BB00CAB6B1F0BEDCCAB6B7
:1402440000D3EFD2F4B3ACCAB100B3F5CABCBBAFD6D000D333
:14025800EFD2F4C4A3BFE900D4A4BEAFCFB5CDB300BBB6D3A1
:14026C00ADCAB9D3C3B6C0BED3C0CFC8CB00201410142254C1
:1402800059050000000000000000000000000000000000000C
:14029400000000D6DCC8D500D6DCC1F900D6DCCEE500D6DC84
:1402A800CBC400D6DCC8FD00D6DCB6FE00D6DCD2BB00000097
:1402BC000000000000A1E600BEC8C3FC20317CBEC8C3FCB0A0
:1402D000A120317CB0A5DFCF20327CCFD6D4DAB6E0C9D9B69A
:1402E400C8203130307CCFD6D4DACEC2B6C8B6E0C9D9203127
:1402F80030307CCFD6D4DABCB8B5E3203130317CCAB1BCE46E
:14030C00203130317C000000B4CACCF5B8FCD0C2CAA7B0DC2D
:1403200000B4CACCF5B8FCD0C2B3C9B9A600D5FDD4DAB8FC35
:14033400D0C2B4CACCF5A1A3A1A3005B6D335D5B73355D5B49
:1403480076335D5B66315D5B62305DB2BBBAC3D2E2CBBCA33A
:14035C00ACCFB5CDB3CEB4C0EDBDE2C4FAB5C4D2E2CBBCA3FA
:14037000ACC7EBD6D8D0C2CBB5D2BBB1E95B6D335D5B645DC0
:14038400005B6D335D5B73355D5B76335D5B66315D5B623010
:140398005DBBB6D3ADCAB9D3C3B6C0BED3C0CFC8CBD3A6BC8C
:1403AC00B1BAF4BEC8CFB5CDB35B6D335D5B645D0047455400
:1403C00020687474703A2F2F616C61726D2E69636861726D02
:1403D4002E6D650041542B43495053454E440041542B434903
:1403E800504D4F44453D31005443502C616C61726D2E696304
:1403FC006861726D2E6D652C38300041542B4349504D55581B
:140410003D300041542B43574A41503D49434841524D2C6DAC
:14042400656979616E6C69616E670041542B52535400CFEF2C
:14043800D0E1CDBFDEBFCE51D0400AEA08830024EFE2F3E060
:14044C0015E0EB37F10711F00192FBCF0083E7E0F2E0A0E093
:14046000B1E014E000E00BBFE633F10721F0C89531960D9274
:14047400F9CF0E947802FFCF22E631E000E90E94890704E6A4
:1404880010E00E940B0729E531E00AE80E94890708EB1BE08B
:14049C000E940B070C94830720E531E000E90E94890704E653
:1404B00010E00E940B0727E431E00AE80E94890708EB1BE066
:1404C4000E940B070C948307F89422242CBE20926D000E94C9
:1404D800C007222425BE20926A002ABE29BE27BE20927D0021
:1404EC00789408956C970E941A0704E610E00E940B070E945D
:14050000A3070E9483070E9410040E949C050AE010E00E949C
:140514000B07B2DFD9DF0E947208C2DF0E94B109E6C00E9417
:140528004A040E94550621C008E90E94330702E010E00E9452
:14053C000B078AE393E0E0913703FF27E80FF91F4081809107
:1405500037038F5F809337038F70809337034D3009F40DC08F
:14056400042F0E94500702E010E00E940B0720903703309027
:1405780038033214C9F60E943A0A0E949608A02E4A2D552748
:14058C004130E0E05E0709F452C04230E0E05E0709F459C009
:1405A0004330E0E05E0709F4A4C04430E0E05E07E1F045306F
:1405B400E0E05E0711F14630E0E05E0791F14730E0E05E0753
:1405C80021F14130E0E05E070CF474C04436E0E05E0709F4A7
:1405DC0044C04536E0E05E0709F456C069C02EE331E008E819
:1405F0000E94890702E010E00E940B077AC025E331E008E8FC
:140604000E94890702E010E00E940B0770C02AE231E008E8ED
:140618000E94890702E010E00E940B0766C02DE131E008E8E1
:14062C000E94890702E010E00E940B075CC028E131E00CE8D8
:140640000E94890702E010E00E940B070E94570A50C023E1D7
:1406540031E00CE80E94890702E010E00E940B0746C02EE0C1
:1406680031E00CE80E94890702E010E00E940B070E949F067A
:14067C0098018E010B5E1F4F0E94D60A8E010B5E1F4F0E94E1
:140690000F092FC029E031E00CE80E94890702E010E00E949B
:1406A4000B070E943205680196018E010E94D60A8E010E9415
:1406B8000F091BC020E031E00CE80E94890702E010E00E9490
:1406CC000B070CE80E94330702E010E00E940B074A2D429564
:1406E0004F70405D042F0E94500702E010E00E940B0719CF10
:1406F4006C9608954A931F9A169A0E7F442709C000FF02C08B
:140708001E9A01C01E981D9A1D98069543954830A8F3169A0C
:14071C00442709C020FF02C01E9A01C01E981D9A1D9826955E
:1407300043954830A8F31F98499108954A936A931F9A169A59
:140744000160662709C000FF02C01E9A01C01E981D9A1D988E
:14075800069563956830A8F31698662709C046950E9B02C07D
:14076C00406801C04F771D9A1D9863956830A8F31F98042FC9
:1407800069914991089522270EE8B6DF20E800E8B3DF2091ED
:1407940074010CE8AFDF2091750108E8ABDF2091760106E8A3
:1407A800A7DF20917A010AE8A3DF2091770104E89FDF2091D3
:1407BC00780102E89BDF2091790100E897DF20E80EE894CF62
:1407D000AA924A930CE8B2DF0093740108E8AEDF00937501E9
:1407E40006E8AADFA02EA092760104E8A5DFA02EA09277012B
:1407F80002E8A0DFA02EA092780100E89BDF402F842F8F7781
:14080C00809379010AE894DFA02EA0927A014991A9900895BB
:140820001F981D98179A159A08954A93402F413029F42EEA69
:1408340031E006E80E948907423029F429EA31E006E80E943C
:140848008907433029F424EA31E006E80E948907443029F4AC
:14085C002FE931E006E80E948907453029F42AE931E006E89B
:140870000E948907463029F425E931E006E80E9489074730F9
:1408840029F420E931E006E80E94890749910895219708ECE6
:1408980010E00E940B0798DF00E80E94330702E010E00E94F9
:1408AC000B078091730182958F70805D8883082F0E94500773
:1408C00002E010E00E940B07809173018F70805D8883082FFB
:1408D4000E94500702E010E00E940B078091740182958F70F5
:1408E800805D8883082F0E94500702E010E00E940B0780914D
:1408FC0074018F70805D8883082F0E94500702E010E00E94E8
:140910000B070DE20E94500702E010E00E940B0780917501CC
:1409240082958F70805D8883082F0E94500702E010E00E941D
:140938000B07809175018F70805D8883082F0E94500702E019
:14094C0010E00E940B070DE20E94500702E010E00E940B0785
:140960008091760182958F70805D8883082F0E94500702E0EB
:1409740010E00E940B07809176018F70805D8883082F0E9483
:14098800500702E010E00E940B0700917A0149DF02E010E078
:14099C000E940B0700E90E94330705E010E00E940B07809134
:1409B000770182958F70805D8883082F0E94500702E010E0BB
:1409C4000E940B07809177018F70805D8883082F0E945007CB
:1409D80002E010E00E940B070AE30E94500702E010E00E942B
:1409EC000B078091780182958F70805D8883082F0E9450072D
:140A000002E010E00E940B07809178018F70805D8883082FB4
:140A14000E94500702E010E00E940B070AE30E94500702E087
:140A280010E00E940B078091790182958F70805D8883082F56
:140A3C000E94500702E010E00E940B07809179018F70805DC0
:140A50008883082F0E94500702E010E00E940B07219608957D
:140A640065978BE791E0FE0105E110E0FA93EA939A938A9376
:140A78000E948A0BA9DE8091730182958F70805D8883809118
:140A8C0073018F70805D89838091740182958F70805D8A8374
:140AA000809174018F70805D8B838DE28C83809175018295B6
:140AB4008F70805D8D83809175018F70805D8E838DE28F834D
:140AC8008091760182958F70805D8887809176018F70805D2C
:140ADC00898780E28A878B878091770182958F70805D8C87E2
:140AF000809177018F70805D8D878AE38E8780917801829556
:140B04008F70805D8F87809178018F70805D888B8AE3898BF1
:140B18008091790182958F70805D8A8B809179018F70805DCF
:140B2C008B8B22242C8A8E01659608954A93149A1C9805E058
:140B400010E00E94F6061C9A149801E010E00E94F60641B150
:140B5400407105E010E00E94F606442311F0002701C001E038
:140B6800499108954A936A93442768E00FC04695149A1C9869
:140B7C000E94ED061C9A14980E94ED060C9B01C040680E9427
:140B9000F0066A95662379F7042F699149910895AA924A93A6
:140BA400A02E48E00EC0149A1C980E94ED06A0FE01C01C9A6D
:140BB80001E010E00E94F6061C9AA6944A95442381F7499132
:140BCC00A9900895B3DF0CECE5DF04E4E3CF4A935A932997CD
:140BE000ABDF0CECDDDF0EEBDBDF4427552708C0BDDFCE01F6
:140BF400FA01E80FF91F00834F5F5F4F4930E0E05E07A0F3D3
:140C080049815527542F4427288033244229532950933603A2
:140C1C00409335030EE810E00E940C0B18012901009135030E
:140C3000109136030E94D40B3A932A931A930A93810192016C
:140C44000E94D70C0E94A20B10933603009335038A012996D7
:140C5800599149910895AA92BA92580124E630E085010E9404
:140C6C00F20A109334030093330324E630E085010E94F00A99
:140C800058012AE030E00E94F20A10933203009331032AE0A6
:140C940030E085010E94F00A1093300300932F03B990A990FD
:140CA8000895219791DF95DF0091350310913603D2DF05E9BD
:140CBC0010E00E94330702E010E00E940B078091330390916A
:140CD0003403C0968883082F11270E94500702E010E00E949C
:140CE4000B078091310390913203C0968883082F11270E94DD
:140CF800500702E010E00E940B070EE210E00E94500702E050
:140D0C0010E00E940B0780912F0390913003C0968883082F00
:140D200011270E94500702E010E00E940B072AEB31E007E9F2
:140D340010E00E94890721960895279783EB91E0FE0107E0B2
:140D480010E0FA93EA939A938A930E948A0B3CDF40DF009151
:140D5C003503109136037DDF8091330390913403C096888315
:140D70008091310390913203C09689838EE28A8380912F03B2
:140D840090913003C0968B832AEB31E08E010E94C90A222433
:140D98002E828E0127960895000000000000000000000000AE
:140DAC00089500000000000000000000000000000000000096
:140DC00000000000000000000000000000000000000000001F
:140DD400000000000895E9DFE8DFE7CFFCDFFBDFFADFF9CFD3
:140DE800FBDFFACF4A93402F01C0FADF242E332441502220F2
:140DFC00D1F749910895F2DFF1DFF0DFEFDFEEDFEDDFECDF02
:140E1000EBDFEADFE9CF4A935A93A80101C0F1DF1A014150D3
:140E240050402220D1F73320C1F75991499108958FEF8BBBF0
:140E38008ABB809362008093610082BB81BB83B98EEF82B90B
:140E4C00949A959A8FEF8BBB959888BB87BB80916200846068
:140E6000809362000895AA92A02E809162008D7F809362006E
:140E7400809162008B7F8093620080916200886080936200A8
:140E8800ABBA05E010E00E940B0780916200877F809362007A
:140E9C00A9900895AA92A02E80916200826080936200809187
:140EB00062008B7F8093620080916200886080936200ABBA18
:140EC40005E010E00E940B0780916200877F80936200A9906A
:140ED80008950E94580BC22E402FAE80CC2021F4042F00584B
:140EEC00BCDF03C0042F0057B8DF02E010E00E940B070A2DB6
:140F0000CFDF0C945F0B01E0AEDF0AE010E00C940B070E9489
:140F1400360BA901A02E0A2DA4DF05E010E00E940B0709C004
:140F2800FA010081B9DF4F5F5F4F05E010E00E940B07FA01C1
:140F3C002080222099F70C943B0B8FEF8ABB8AB3806E8ABB16
:140F500000E389DF05E010E00E940B0700E383DF05E010E09F
:140F64000E940B070CE07DDF05E010E00E940B0701E077DFBD
:140F780005E010E00C940B0722242AB886E0809395002BB8C5
:140F8C002092900083E089B988E98AB92092CD032092CC03B3
:140FA000089522242092E00311C081EE93E0E091E003FF2798
:140FB400E80FF91F20802CB85E9BFECF5E9A8091E0038F5FF6
:140FC8008093E0032090DF033090E003321448F308952A9210
:140FDC008A939A93EA93FA932FB62A928FEC93E0E091CD03DD
:140FF000FF27E80FF91F2CB020828091CD038F5F8093CD0388
:141004008F708093CD0329902FBEF991E9919991899129904F
:141018001895222420929A0086E080939D0020929B00209270
:14102C00980083E08093990088E980939A002092380320924C
:1410400037030895222420924B0318C08CE493E0E0914B0305
:14105400FF27E80FF91F208020929C0020909B0026FEFCCF2B
:1410680080919B00806480939B0080914B038F5F80934B0388
:14107C0020904A0330904B03321410F38DE080939C00209040
:141090009B0026FEFCCF80919B00806480939B0008952A922B
:1410A4008A939A93EA93FA932FB62A928AE393E0E0913803B7
:1410B800FF27E80FF91F20909C002082809138038F5F8093B4
:1410CC0038038F708093380329902FBEF991E991999189919A
:1410E00029901895A69AA79AAE9AAF9A04E610E00E940B07F6
:1410F400AF980AE010E00E940B07AF9A04E610E00C940B073E
:141108008DEF8093E1031801232C33242092E203C801907041
:14111C008093E3032093E40322242092E50308950E94660B9C
:1411300044272224332430920C0220920B0204C001E010E07F
:141144000E940B072090CD033090CC033214B1F38FEC93E0FC
:14115800E32DFF27E80FF91F6081832D8F5F8093CC038F70DE
:14116C008093CC03C42EDD24CC2011F4DD2091F0C6018130B3
:14118000E0E09E0791F08230E0E09E07A9F08330E0E09E07AD
:14119400D1F08430E0E09E0719F13CC06C3F09F039C041E0A9
:1411A80037C0662319F00027112733C042E030C086E0861743
:1411BC0018F4002711272BC0A62E43E027C0653419F400271E
:1411D000112723C0AA9419F4062F11271EC0C62E44E01AC068
:1411E40020900B0230900C02322C222430920C0220920B0239
:1411F800262E332440900B0250900C024228532850920C0298
:14120C0040920B02AA9411F4820101C097CF0C946F0B0E9446
:141220004A0B580185010E94DF0AA80121E00E5F1F4F6ADF2D
:1412340022242092E503662777270CC0FB01EA0DFB1D208024
:1412480086EE93E0FB01E80FF91F20826F5F7F4F641775076B
:14125C0088F386EE93E0FB01E80FF91F22242082CA010596C3
:141270008093DF0322242092CD032092CC030E94D10754DF7F
:141284000134E0E01E0729F004E110E00E940B07EFCF4ADFB3
:14129800A8010F34E0E01E0709F401C0C8D00C94510B2EE70A
:1412AC0032E001E614E00E94010F01E614E0B1CF28E332E017
:1412C00001E614E00E94010F01E614E0A8CFAA92A02E25E02C
:1412D40002E010E017DFA092E50301EE13E00E94DF0A009324
:1412E800DF0322242092CD032092CC030E94D10719DF003025
:1412FC000107A9F304E110E00E940B07A99008952EE107E0E5
:1413100010E0FADE82E08093E5038BE08093E60388EB8093B7
:14132400E70383E18093E80388E88093E90384E08093EA0396
:141338008AE08093DF0322242092CD032092CC030E94D1077F
:14134C00EFDE0134E0E01E0709F401C0F2CF04E110E00C94B2
:141360000B070E94400B0DEB11E00E94DF0A402F2FE111274F
:141374000D5F1F4FC7DE22242092E50380E28093E60366271B
:1413880077270EC08DEB91E0FB01E80FF91F208087EE93E069
:14139C00FB01E80FF91F20826F5F7F4F242E3324621573055C
:1413B0006CF3822D8A5F8093DF0322242092CD032092CC03F4
:1413C4000E94D10727E232E008E80E94890702E010E00E94EA
:1413D8000B07A8DE0134E0E01E0709F405C004E110E00E9416
:1413EC000B07E5CF9DDEA8010133E0E01E0771F40E94830759
:141400002AE132E008E80E94890708EE13E00E940B070E945A
:1414140083070DC00E9483072DE032E008E80E94890708EE0A
:1414280013E00E940B070E9483070C94450B21E201E010E019
:14143C0065DE84E08093DF0322242092CD032092CC030E9415
:14145000D1076CDE0134E0E01E0731F467DE0F34E0E01E07BA
:1414640009F405C004E110E00E940B07E9CF089520E102E0F1
:1414780010E046DE22242092E50385E08093DF03222420921A
:14148C00CD032092CC030E94D1074ADE0134E0E01E0709F442
:1414A00005C004E110E00E940B07EECF089528E233E00CE483
:1414B40013E00E94010F0CE413E00E94DF0A00934A030C9491
:1414C80022082CE033E00CE413E00E94010F0CE413E00E94AD
:1414DC00DF0A00934A030C94220820E033E00CE413E00E94D1
:1414F000010F0CE413E00E94DF0A00934A030C94220829EEA9
:1415040032E00CE413E00E94010F0CE413E00E94DF0A00932B
:141518004A030C9422082CED32E00CE413E00E94010F0CE4F8
:14152C0013E00E94DF0A00934A030C94220821ED32E00CE473
:1415400013E00E94010F0CE413E00E94DF0A00934A030C9404
:14155400220826EB32E00CE413E00E94010F0CE413E00E941C
:14156800DF0A00934A030C942208C7DF08EC10E00E940B079E
:14157C00D0DF08EC10E00E940B07D9DF02E310E00E940B07D3
:14159000E2CFA02FB12FE22FF32F2D912223E9F71197219177
:1415A4002D932223E1F70895A02FB12FE22FF32F01900D92A7
:1415B8000020E1F70895E02FF12FAA27BB270190002011F0F6
:1415CC001196FBCF0A2F1B2F08953A932A931A930A93089509
:1415E000689401C0E894EA92FA928A93EE24FF2480E1000FF4
:1415F400111FEE1CFF1CE216F30618F0E21AF30A03958A95E5
:14160800A1F716F40E2D1F2D8991F990E9900895EA93FA93E2
:14161C000A92E02FF12FD895002D3196D895102D3196D895B0
:14163000202D3196D895302D0990F991E9910895A990B9900C
:14164400C990D990E990F990499159916991799108957A935C
:141658006A935A934A93FA92EA92DA92CA92BA92AA920895C2
:14166C005A934A93BA92AA920895A990B99049915991089598
:141680007A936A935A934A9308954991599169917991089580
:141694007A936A935A934A93BA92AA920895A990B9904991ED
:1416A80059916991799108955A934A93DA92CA92BA92AA9289
:1416BC000895A990B990C990D9904991599108957A936A93CE
:1416D0005A934A93DA92CA92BA92AA920895A990B990C99074
:1416E400D990499159916991799108950A92D8950A923196B8
:1416F800D895F02DE9910990099400951095209530950F5F82
:14170C001F4F2F4F3F4F0895AA93BA93EA93FA930A92AF8152
:14172000B885ED81FE810030010729F001900D920150104069
:14173400F8CF0990F991E991B991A991249608954A925A929A
:141748006A928A930E94080C11F15520E2F08FE14816C0F4F3
:14175C0087E14816D1F058F4419489EE481A05C035952795AD
:14177000179507954A94D1F70EC087E1481A000F111F221F5F
:14178400331F4A94D1F705C03FE7232F132F032F04C066205E
:1417980011F00E94810B89916990599049900895689401C0DF
:1417AC00E8942227332746F017FD209517FD309503C0689473
:1417C00001C0E8944A925A926A928A9387E1482E5524662416
:1417D40036F0332322F40E94810B80E8682E0E94210C89915A
:1417E80069905990499008950FD029F0662011F00E94810BE8
:1417FC0098940895002329F4112319F4222309F4332308955A
:14181000F7DF99F08A93632E80E86822220F331F432E8FE75B
:14182400481A55248827580A269530E8232B33278991989403
:1418380008954424552466240895DEDF09F40895AA93BA9316
:14184C00D2019A938A938EE790E0332349F0369527951795C4
:141860000795A817B907CCF41196F5CF809590950196222318
:14187400BAF0000F111F221FA817B90714F01197F6CF00271F
:14188800112722273327899199912D01B991A9910895332784
:14189C000FEF102F2FE7322F899199912D0102C0AA93BA93C6
:1418B000A7DF49F0D201A158BF4F2D01342D220F3695279544
:1418C4003629B991A99108954A925A926A927A928A929A9278
:1418D800AA92BA92CA92DA92EA92FA928A939A930895999193
:1418EC008991F990E990D990C990B990A9909990899079903D
:1419000069905990499008950E94660CAA93BA930E94080C27
:14191400E1F1E62CD52CC42CB32EA22E912E802E00811181B9
:14192800228133810E94080C71F16E244C0C5D1C80E8481613
:14193C00530664F581E848168FEF58066CF1A29EB12DA02DFA
:14195000919E912D802DA09E800D911DA31FB31F829E800D2F
:14196400911DA31FB31F929E900DA11DB31FA19E900DA11D36
:14197800B31F2B2F1A2F092F880F001F111F221F331F0E9493
:14198C00210CB991A9910E94750C08950FEF102F2FE78FE70D
:1419A000482EF5CF0027102F202F302FF0CFFA93EA93EC2F01
:1419B400FD2F32960E94840CE991F991249608950E94EB0A07
:1419C8000E942B0BA901EE84FF845A01AA2051F4BB2041F41A
:1419DC0080E3EA85FB858083222421828F0153C04030E0E0E6
:1419F0005E076CF4C7018A30E0E09E0741F4CC24C394C501F5
:141A04008095909501965C0101C0CC246A857B8597018501E2
:141A18000E94F00AA80189E090E08017910734F0CA01C09628
:141A2C00FB018193BF0106C0CA01895A9F4FFB018193BF01A4
:141A4000970185010E94F20A5801AA2019F7BB2009F7CC20DC
:141A540021F08DE2FB018193BF012B01615070402224F20168
:141A68002082AA84BB840CC0F501C080FB012080F501219214
:141A7C005F011B0161507040F101C082A616B70688F30A85C2
:141A90001B850E94200B249608950E942B0B69015801EA8475
:141AA400FB84A501970186010E94F00AB80189E090E0801725
:141AB800910734F0CB01C096FA018193AF0106C0CB01895A08
:141ACC009F4FFA018193AF01970186010E94F20A6801CC2047
:141AE00019F7DD2009F72A01415050402224F2012082650158
:141AF4000CC0F601E080FA012080F60121926F011A0141505A
:141B08005040F101E082C416D50688F385010C94200B83E9F8
:141B1C0090E0F801E80FF91F069111270270107008954A9302
:141B30005A93A8018A010E948D0D0030010731F08A01015609
:141B440010400F5B1F4F01C08A015991499108950E94EB0A21
:141B58000E942B0B24976A897B894427552737C1E889F9891D
:141B6C008081853241F00081EE85FF850E94780B4F5F5F4F83
:141B800025C180E695E05C0180E2C82E888999890196998BED
:141B9400888BFC01E080FF24C7018835E0E09E0709F465C09E
:141BA80088E58E159F0594F0C7018534E0E09E0709F404C149
:141BBC008534E0E09E070CF43DC0C7018335E0E09E0709F418
:141BD000AFC036C0C7018336E0E09E0709F499C08436E0E0E6
:141BE4009E0709F435C08536E0E09E0709F4E8C08636E0E015
:141BF8009E0709F4E3C08936E0E09E0739F18F36E0E09E071C
:141C0C0009F431C08037E0E09E0709F42CC08336E0E09E07B3
:141C20007CF0C7018337E0E09E0709F4A2C08537E0E09E07DD
:141C3400F1F08837E0E09E07D1F000C0E889F9890081EE852F
:141C4800FF850E94780B4F5F5F4FBCC06E5F7F4FFB013297A7
:141C5C00E080F1808AE090E099838883970185010E94E20CF4
:141C70004CC06E5F7F4FFB013297E080F180E889F98980812F
:141C8400853749F48AE090E099838883970185010E944D0D38
:141C980038C0E889F98980818F3649F488E090E0998388834B
:141CAC00970185010E944D0D2AC0E889F9898081803731F450
:141CC00080E3F501819388E781935F0180E190E099838883C8
:141CD400970185010E944D0DE889F9898081883591F480E646
:141CE80095E05C010AC0F501008111270E94970DF5010083DE
:141CFC00C50101965C01F5012080222091F780E695E05C0182
:141D10003EC06E5F7F4FFB013297208031802A82022DEE85C2
:141D2400FF850E94780B4F5F5F4F4EC06E5F7F4FFB01329738
:141D3800E080F1808C2D8D3299F40DE2EE85FF850E94780BB6
:141D4C004F5F5F4F0BC0F7010691EE85FF850E94780B4F5F03
:141D60005F4FC70101967C01F7012690222089F72DC06E5FBB
:141D74007F4FFB013297A080B180AA2031F4BB2021F483E92C
:141D880091E07C01D7CF8C2D8D3299F40DE2EE85FF850E9426
:141D9C00780B4F5F5F4F0BC0F5010081EE85FF850E94780BF6
:141DB0004F5F5F4FC50101965C01F5012080222089F704C0ED
:141DC40085EA91E07C01B8CF888999890196998B888BE889B5
:141DD800F9892080222009F0C3CE8A0124960E94200B24963D
:141DEC000895E0917905F0917A050193F0937A05E0937905D0
:141E000008950E94EB0AAA92BA9222972C803D8030927A05AF
:141E140020927905CE0108965C01B982A8822E813F810CE8F8
:141E280010E00E94AA0D2224E0917905F0917A0520822C80DA
:141E3C003D800091790510917A05021913092296B990A99035
:041E50002496089537
:00000001FF
